01010172035EL RICOTON                    SANTO DOMINGO / PERU          010101       00000067
01010788035CARNABY                       JERUSALEN                     010101       00000067
01011062014PASTELERIA LUCIANO E.I        MERCADERES 103        12103417101010       00000068
01011133007BUCARO                        Peral                         010101       00000067
01011255035BUCARO                        PERAL                         101010       00000068
01011357034REST. EL BONANZA              JERUSALEN                     101010       00000068
01011482035BANCO DE LIMA                 MERCADERES                    010101       00000067
01013568035ROXANA ESPINOZA               Melgar 324-B                  010101       00000067
01011505035RAMIRO LUCAS QUISPE MA        PTE. BOLOGNESI 118-A          101010       00000068
01011507028IMPRENTA SAN FERNANDO         UGARTE / SAN FRANCISC 12988575010101       00000067
01011579026POLLOS KANTOLES-VICTO         PERAL 204                     010101       00000067
01011615007ISI SNACK                     SANTA MARTHA 214      13309116010101       00000067
01013533007MADRE NATURA                  Santo Domingo 132 Int 12134200101010       00000068
01011656021NOEMI  RODRIGUEZ              SANTO DOMINGO 303-B   13001286010101       00000067
01011685035TRANSAI S.R.E.                GENERAL MORAN 108             101010       00000068
01011712035LA HABANA                     ESQ. JERUSALEN / SAN          010101       00000067
01011739055DISTRIB. Y REGALOS MEL        UGARTE 101            12081707010101       00000067
01011757015PATRICIA CARPIO               MERCADERES 327        13463808010101       00000067
01011887007GIANNI                        SAN FRANCISCO 304             010101       00000067
01011896035YOLANDA ARAGON                Mercaderes 411 (Inst.         010101       00000067
01012176007LA EMPANADITA                 SAN JUAN DE DIOS 205  12107544101010       00000068
01013461004LUIS GUZMAN VALDEZ            Puente Bolognesi 112          101010       00000068
01013330035MARIA LUISA MONTOYA DE        SANTO DOMINGO 114             101010       00000068
01012271035EDUARDO PORTAL-PERROS         SAN JUAN DE DIOS 205          101010       00000068
01012272021TIO RICO                      SANTO DOMINGO 306 D   13088497010101       00000067
01012281035ELIANA VELASQUEZ              SAN JOSE                      010101       00000067
01012504035MIRIAM ARAGON                 MELGAR 203                    010101       00000067
01013192007FRANCISCO CARRASCO            San Juan de Dios 209-         101010       00000068
01012505021GLADYS TALAVERA               JERUSALEN 204 INT. 4  12104110010101       00000067
01012506035ROXANA CALIENES               MERCADERES 400                010101       00000067
01012509004MITOS CEVICHERIA              PSJE. CATEDRAL 102            101010       00000068
01012534035COLONIAL IN                   SAN FRANCISCO 205             010101       00000067
01012549035MARIA GALVEZ                  SAN FRANCISCO 113             101010       00000068
01012566021IMELDA RIVERA DE ARAGO        PERAL 208-A           16151289010101       00000067
01012976035COOP. SOLUCION                JERUSALEN 204-C               010101       00000067
01013039035ROCIO CALLO ROMERO            SANTO DOMINGO 132 TDA         101010       00000068
01013102035BENEDICTA GUTIERREZ           PERU 100-D                    010101       00000067
01013131035EL IMPERIAL                   RIVERO 301-A                  010101       00000067
01013132001ALBERTO RODRIGUEZ             PERAL 105 2DO. PISO           010101       00000067
01013200035ELCIRA CENTENO                MELGAR 114-B                  010101       00000067
01013201035GUIDO L. PAZZANO              SAN JOSE 206                  010101       00000067
01013289035HERNAN VALDIVIA               SAN JOSE 200-A                010101       00000067
01013357035ROLANDO GARCIA                INST.PEDRO RUIZ GALLO         010101       00000067
01013397014PASTELERIA ESCALANTE          SANTO DOMINGO                 101010       00000068
01013460031ANA MARIA MARTINEZ            Mercaderes 130  Inter         101010       00000068
01013462059DANIEL ALFARO                 Pi‚rola 221                   101010       00000068
01013465031FRANCISCA CUEVAS              I.T.S.M. SANTA MARTHA         010101       00000067
01013466031MARIA GARCIA VALENCIA         I.T.S.M. SANTA MARTHA         010101       00000067
01013467031MATILDE SOTO                  COL.MADAME CURIE MELG         010101       00000067
01013468008WALTER ARAGON                 I.C.P.N.A. MELGAL 109         010101       00000067
01013512014FANOR BAGUETERIA S.C.R        Mercaderes 307-B              010101       00000067
01013513026EL POLLO GORDITO/LUIS         Melgar 216                    010101       00000067
01013534005FERNANDO VASQUEZ SOSA         Mercaderes 117                101010       00000068
01013535031CELESTINA BASURCO             Portal Municipalidad/         101010       00000068
01013542008LUISA SALAS DE MANRIQU        Correo Central (Cafet         010101       00000067
01013591007TERESA YONAMINI               Mercaderes # 415              010101       00000067
01005072021VICENTE  BEJAR                Ptal San Agust¡n 105  12126131101010       00000068
01007181011HOTEL VIZA                    PERU 202                      010101       00000067
01004031014ROSA DEL CARPIO               San Francisco 101     12107935101010       00000068
01005023014HNOS. ESCALANTE               Santo Domingo 304     13305374010101       00000067
01007002011MARIA SALAS                   SAN FRANCISCO 109             101010       00000068
01007840011EL CANELA                     SAN FRANCISCO 111             101010       00000068
01005003009BERTHA BENAVENTE              Per£ 107              12503946010101       00000067
01005067021TERESA CHOQUE T./ROOM         Ptal. San Agust¡n 115 12106556101010       00000068
01007603011HOSTAL TITO                   PERU 105-B                    010101       00000067
01005677007LA TABERNA -  NINFA PA        PUENTE BOLOGNESI 110          101010       00000068
01007469007MIAMI INN                     San Jos‚              12391743010101       00000067
01004994014FANOR BAGUET.PASTELERI        PERU 105-A            12155387010101       00000067
01005005021DOMITILA RIVERA               Per£ 109              12141360010101       00000067
01005065003JOSIME S.R.LTDA.              Ptal. San Agust¡n 123 12085478101010       00000068
01004016009FREDY GAMBELA                 Pasaje Catedral 115   12135475101010       00000068
01005061008GIAN CARLO CASASA             Ptal. San Agustin 133 12117906101010       00000068
01004008007LUISA BERRIOS                 Sta Catalina 116              101010       00000068
01005063008JUAN PACAYA                   Ptal. San Agust¡n 129 13000921101010       00000068
01005001014MARCOS STOIKI                 Per£ 103-B            12106092010101       00000067
01005060022MAISON PLAZA                  Ptal. San Agustin 143 12123116101010       00000068
01004998055ENRIQUE VEGA                  Per£ 112              13513775010101       00000067
01005059022ROLANDO CHAVEZ-HOTEL C        Ptal. San Agustin 147         101010       00000068
01007417018FREDY CHIRINOS                SANTA CATALINA 111-B  14225706101010       00000068
01005055009MIGUEL PAREDES                Pte. Bolognesi 143            101010       00000068
01005976035COMERCIAL LYCH'S              Per£ 100              13306788010101       00000067
01004011031ELVIRA SALINAS                Santa Catalina 118 (E         101010       00000068
01004977021ALFREDO RODRIGUEZ             Per£ 101                      010101       00000067
01011130007EL TABLON                     PTE BOLOGNESI                 101010       00000068
01004973015HELADOS NINIVE                Mercaderes 406                010101       00000067
01005053007ABELARDO RIVERA/RINCON        Pte. Bolognesi 125    13313407101010       00000068
01005068021SANTIAGO FLORES               PORTAL SAN AGUSTIN 11         101010       00000068
01004966026POLLERIA EL COLORADO -        Mercaderes 418                010101       00000067
01004090031ELVIRA BASURCO                Moral 212                     010101       00000067
01007324011ROSA LUZ DE CUSILAUME         MORAL 204                     010101       00000067
01005052007RAUL PONCE                    Pte. Bolognesi 121    13463773101010       00000068
01004967051LUZ SOLIS                     Mercaderes 414                010101       00000067
01007854011JUAN CCASA AMADO              PUENTE BOLOGNESI 116          101010       00000068
01010884007SABINA LINARES                MERCADERES 419        12149646010101       00000067
01004059014HUMBERTO TACCO H.             San Francisco 139     12107439101010       00000068
01007201011TINA DE OVIEDO                PUENTE BOLOGNESI  116         101010       00000068
01004053021CENTRAL GARDEN                San Francisco 127             101010       00000068
01011119035HOSTAL CONQUISTADOR           MERCADERES                    010101       00000067
01004981007LOS RICOS SANDWICH- NE        Mercaderes 342        13303525010101       00000067
01004051008SERVIAL S.A.                  San Francisco 125     13321230101010       00000068
